:020000040800F2
:1000000000500020B9310008252C0008272C0008DA
:10001000292C00082B2C00082D2C000800000000C3
:100020000000000000000000000000002F2C00086D
:10003000312C000800000000332C0008352C00088B
:1000400001320008013200080132000801320008C4
:1000500001320008013200080132000801320008B4
:100060000132000801320008013200083D2C00086E
:1000700001320008013200084D2C00085D2C0008F8
:100080000132000801320008013200086D2C00081E
:100090007D2C00088D2C00089D2C000801320008E2
:1000A00001320008AD2C00080132000801320008BE
:1000B0000132000801320008B52C000801320008A6
:1000C0000132000801320008013200080132000844
:1000D00001320008BD2C000801320008013200087E
:1000E000013200080132000801320008000000005F
:1000F0000000000000000000000000000000000000
:0C01000000000000000000005FF808F1A3
:1001100010B5054C237833B9044B13B10448AFF341
:1001200000800123237010BD080A00200000000099
:100130001C21010808B5034B1BB103490348AFF369
:10014000008008BD000000000C0A00201C210108EE
:1001500081F0004102E000BF83F0004330B54FEA78
:1001600041044FEA430594EA050F08BF90EA020FE5
:100170001FBF54EA000C55EA020C7FEA645C7FEA78
:10018000655C00F0E2804FEA5454D4EB5555B8BF9B
:100190006D420CDD2C4480EA020281EA030382EA0C
:1001A000000083EA010180EA020281EA0303362D9E
:1001B00088BF30BD11F0004F4FEA01314FF4801C71
:1001C0004CEA113102D0404261EB410113F0004F83
:1001D0004FEA03334CEA133302D0524263EB43033A
:1001E00094EA050F00F0A780A4F10104D5F1200ED8
:1001F0000DDB02FA0EFC22FA05F2801841F1000133
:1002000003FA0EF2801843FA05F359410EE0A5F106
:1002100020050EF1200E012A03FA0EFC28BF4CF037
:10022000020C43FA05F3C01851EBE37101F00045ED
:1002300007D54FF0000EDCF1000C7EEB00006EEBFA
:100240000101B1F5801F1BD3B1F5001F0CD3490884
:100250005FEA30004FEA3C0C04F101044FEA4452DB
:1002600012F5800F80F09A80BCF1004F08BF5FEA62
:10027000500C50F1000041EB045141EA050130BD42
:100280005FEA4C0C404141EB0101013C28BFB1F554
:10029000801FE9D291F0000F04BF01460020B1FA9F
:1002A00081F308BF2033A3F10B03B3F120020CDA72
:1002B0000C3208DD02F1140CC2F10C0201FA0CF050
:1002C00021FA02F10CE002F11402D8BFC2F1200CB5
:1002D00001FA02F120FA0CFCDCBF41EA0C0190406B
:1002E000E41AA2BF01EB0451294330BD6FEA0404B4
:1002F0001F3C1CDA0C340EDC04F11404C4F120029F
:1003000020FA04F001FA02F340EA030021FA04F3B0
:1003100045EA030130BDC4F10C04C4F1200220FA07
:1003200002F001FA04F340EA0300294630BD21FA45
:1003300004F0294630BD94F0000F83F4801306BF0B
:1003400081F480110134013D4EE77FEA645C18BFFF
:100350007FEA655C29D094EA050F08BF90EA020F96
:1003600005D054EA000C04BF1946104630BD91EA8E
:10037000030F1EBF0021002030BD5FEA545C05D191
:100380004000494128BF41F0004130BD14F58004D0
:100390003CBF01F5801130BD01F0004545F0FE4144
:1003A00041F470014FF0000030BD7FEA645C1ABF79
:1003B000194610467FEA655C1CBF0B46024650EAB0
:1003C000013406BF52EA033591EA030F41F40021DC
:1003D00030BD00BF90F0000F04BF0021704730B562
:1003E0004FF4806404F132044FF000054FF0000137
:1003F00050E700BF90F0000F04BF0021704730B5F8
:100400004FF4806404F1320410F0004548BF4042CC
:100410004FF000013EE700BF42004FEAE2014FEA21
:1004200031014FEA02701FBF12F07F4393F07F4FFC
:1004300081F06051704732F07F4208BF704793F0FF
:100440007F4F04BF41F40021704730B54FF4607412
:1004500001F0004521F000411CE700BF50EA010215
:1004600008BF704730B54FF000050AE050EA0102BE
:1004700008BF704730B511F0004502D5404261EB2E
:1004800041014FF4806404F132045FEA915C3FF46F
:10049000D8AE4FF003025FEADC0C18BF03325FEA0C
:1004A000DC0C18BF033202EBDC02C2F1200300FABD
:1004B00003FC20FA02F001FA03FE40EA0E0021FAE2
:1004C00002F11444BDE600BF70B54FF0FF0C4CF4D0
:1004D000E06C1CEA11541DBF1CEA135594EA0C0F82
:1004E00095EA0C0F00F0DEF82C4481EA030621EABD
:1004F0004C5123EA4C5350EA013518BF52EA0335F8
:1005000041F4801143F4801338D0A0FB02CE4FF0A9
:100510000005E1FB02E506F00042E0FB03E54FF0D9
:100520000006E1FB03569CF0000F18BF4EF0010ED1
:10053000A4F1FF04B6F5007F64F5407404D25FEACD
:100540004E0E6D4146EB060642EAC62141EA555180
:100550004FEAC52040EA5E504FEACE2EB4F1FD0CC2
:1005600088BFBCF5E06F1ED8BEF1004F08BF5FEA40
:10057000500E50F1000041EB045170BD06F00046F2
:1005800046EA010140EA020081EA0301B4EB5C049F
:10059000C2BFD4EB0C0541EA045170BD41F4801197
:1005A0004FF0000E013C00F3AB8014F1360FDEBFBC
:1005B000002001F0004170BDC4F10004203C35DA98
:1005C0000C341BDC04F11404C4F1200500FA05F31B
:1005D00020FA04F001FA05F240EA020001F00042BC
:1005E00021F0004110EBD37021FA04F642EB060132
:1005F0005EEA430E08BF20EAD37070BDC4F10C045C
:10060000C4F1200500FA04F320FA05F001FA04F21F
:1006100040EA020001F0004110EBD37041F100010B
:100620005EEA430E08BF20EAD37070BDC4F1200516
:1006300000FA05F24EEA020E20FA04F301FA05F27E
:1006400043EA020321FA04F001F0004121FA04F226
:1006500020EA020000EBD3705EEA430E08BF20EAF6
:10066000D37070BD94F0000F0FD101F00046400030
:1006700041EB010111F4801F08BF013CF7D041EAB2
:10068000060195F0000F18BF704703F000465200B6
:1006900043EB030313F4801F08BF013DF7D043EA87
:1006A0000603704794EA0C0F0CEA135518BF95EA3D
:1006B0000C0F0CD050EA410618BF52EA4306D1D1C4
:1006C00081EA030101F000414FF0000070BD50EAE3
:1006D000410606BF1046194652EA430619D094EA6D
:1006E0000C0F02D150EA013613D195EA0C0F05D157
:1006F00052EA03361CBF104619460AD181EA0301AB
:1007000001F0004141F0FE4141F470014FF0000062
:1007100070BD41F0FE4141F4780170BD70B54FF0FD
:10072000FF0C4CF4E06C1CEA11541DBF1CEA13557D
:1007300094EA0C0F95EA0C0F00F0A7F8A4EB05045F
:1007400081EA030E52EA03354FEA013100F0888056
:100750004FEA03334FF0805545EA131343EA12631F
:100760004FEA022245EA111545EA10654FEA0026D4
:100770000EF000419D4208BF964244F1FD0404F58D
:10078000407402D25B084FEA3202B61A65EB0305E9
:100790005B084FEA32024FF480104FF4002CB6EBA6
:1007A000020E75EB030E22BFB61A754640EA0C0026
:1007B0005B084FEA3202B6EB020E75EB030E22BF66
:1007C000B61A754640EA5C005B084FEA3202B6EBA7
:1007D000020E75EB030E22BFB61A754640EA9C0066
:1007E0005B084FEA3202B6EB020E75EB030E22BF36
:1007F000B61A754640EADC0055EA060E18D04FEAF4
:10080000051545EA16754FEA06164FEAC30343EA93
:1008100052734FEAC2025FEA1C1CC0D111F4801F60
:100820000BD141EA00014FF000004FF0004CB6E759
:1008300011F4801F04BF01430020B4F1FD0C88BFF8
:10084000BCF5E06F3FF6AFAEB5EB030C04BFB6EB03
:10085000020C5FEA500C50F1000041EB045170BDF6
:100860000EF0004E4EEA113114EB5C04C2BFD4EB23
:100870000C0541EA045170BD41F480114FF0000EA7
:10088000013C90E645EA060E8DE60CEA135594EA23
:100890000C0F08BF95EA0C0F3FF43BAF94EA0C0F26
:1008A0000AD150EA01347FF434AF95EA0C0F7FF49B
:1008B00025AF104619462CE795EA0C0F06D152EAEF
:1008C00003353FF4FDAE1046194622E750EA4106D3
:1008D00018BF52EA43067FF4C5AE50EA41047FF4E4
:1008E0000DAF52EA43057FF4EBAE12E74FEA410247
:1008F000B2F1E04324BFB3F5001CDCF1FE5C0DD97E
:1009000001F0004C4FEAC0024CEA5070B2F1004FC7
:1009100040EB830008BF20F00100704711F0804FCA
:1009200021D113F13872BCBF01F00040704741F48F
:1009300080114FEA5252C2F11802C2F1200C10FA93
:100940000CF320FA02F018BF40F001004FEAC12377
:100950004FEAD32303FA0CFC40EA0C0023FA02F31B
:100960004FEA4303CCE77FEA625307D150EA0133F1
:100970001EBF4FF0FE4040F44000704701F00040C1
:1009800040F0FE4040F40000704700BF80F000409F
:1009900002E000BF81F0004142001FBF5FEA410357
:1009A00092EA030F7FEA226C7FEA236C6AD04FEA57
:1009B0001262D2EB1363C1BFD2184140484041409C
:1009C000B8BF5B42192B88BF704710F0004F40F44E
:1009D000000020F07F4018BF404211F0004F41F46A
:1009E000000121F07F4118BF494292EA030F3FD036
:1009F000A2F1010241FA03FC10EB0C00C3F1200349
:100A000001FA03F100F0004302D5494260EB4000D7
:100A1000B0F5000F13D3B0F1807F06D340084FEA42
:100A2000310102F10102FE2A51D2B1F1004F40EB37
:100A3000C25008BF20F0010040EA0300704749009F
:100A400040EB0000013A28BFB0F5000FEDD2B0FA3C
:100A500080FCACF1080CB2EB0C0200FA0CF0AABF5F
:100A600000EBC25052421843BCBFD04018437047FD
:100A700092F0000F81F4000106BF80F40000013203
:100A8000013BB5E74FEA41037FEA226C18BF7FEADA
:100A9000236C21D092EA030F04D092F0000F08BF1C
:100AA0000846704790EA010F1CBF0020704712F003
:100AB0007F4F04D1400028BF40F00040704712F142
:100AC00000723CBF00F50000704700F0004343F0A7
:100AD000FE4040F4000070477FEA226216BF0846DD
:100AE0007FEA23630146420206BF5FEA412390EAA0
:100AF000010F40F4800070474FF0000304E000BF96
:100B000010F0004348BF40425FEA000C08BF704746
:100B100043F0964301464FF000001CE050EA01020A
:100B200008BF70474FF000030AE000BF50EA01021F
:100B300008BF704711F0004302D5404261EB41010C
:100B40005FEA010C02BF84460146002043F0B64331
:100B500008BFA3F18053A3F50003BCFA8CF2083A56
:100B6000A3EBC25310DB01FA02FC634400FA02FC5F
:100B7000C2F12002BCF1004F20FA02F243EB020066
:100B800008BF20F00100704702F1200201FA02FCC8
:100B9000C2F1200250EA4C0021FA02F243EB0200BB
:100BA00008BF20EADC7070474FF0FF0C1CEAD052FF
:100BB0001EBF1CEAD15392EA0C0F93EA0C0F6FD0C0
:100BC0001A4480EA010C400218BF5FEA41211ED09E
:100BD0004FF0006343EA501043EA5111A0FB01318A
:100BE0000CF00040B1F5000F3EBF490041EAD3715F
:100BF0005B0040EA010062F17F02FD2A1DD8B3F1DB
:100C0000004F40EBC25008BF20F00100704790F049
:100C1000000F0CF0004C08BF49024CEA502040EA9B
:100C200051207F3AC2BFD2F1FF0340EAC250704761
:100C300040F400004FF00003013A5DDC12F1190F9F
:100C4000DCBF00F000407047C2F10002410021FA11
:100C500002F1C2F1200200FA02FC5FEA310040F129
:100C6000000053EA4C0308BF20EADC70704792F0A2
:100C7000000F00F0004C02BF400010F4000F013ADA
:100C8000F9D040EA0C0093F0000F01F0004C02BFD5
:100C9000490011F4000F013BF9D041EA0C018FE744
:100CA0000CEAD15392EA0C0F18BF93EA0C0F0AD04A
:100CB00030F0004C18BF31F0004CD8D180EA010070
:100CC00000F00040704790F0000F17BF90F0004F09
:100CD000084691F0000F91F0004F14D092EA0C0FEB
:100CE00001D142020FD193EA0C0F03D14B0218BF7E
:100CF000084608D180EA010000F0004040F0FE40C4
:100D000040F40000704740F0FE4040F4400070475F
:100D10004FF0FF0C1CEAD0521EBF1CEAD15392EADE
:100D20000C0F93EA0C0F69D0A2EB030280EA010CCE
:100D300049024FEA402037D04FF0805343EA111167
:100D400043EA10130CF000408B4238BF5B0042F1C5
:100D50007D024FF4000C8B4224BF5B1A40EA0C006A
:100D6000B3EB510F24BFA3EB510340EA5C00B3EB9C
:100D7000910F24BFA3EB910340EA9C00B3EBD10F8A
:100D800024BFA3EBD10340EADC001B0118BF5FEADC
:100D90001C1CE0D1FD2A3FF650AF8B4240EBC25005
:100DA00008BF20F0010070470CF0004C4CEA5020C6
:100DB0007F32C2BFD2F1FF0340EAC250704740F415
:100DC00000004FF00003013A37E792F0000F00F007
:100DD000004C02BF400010F4000F013AF9D040EA85
:100DE0000C0093F0000F01F0004C02BF490011F419
:100DF000000F013BF9D041EA0C0195E70CEAD15311
:100E000092EA0C0F08D142027FF47DAF93EA0C0FF7
:100E10007FF470AF084676E793EA0C0F04D14B02DB
:100E20003FF44CAF08466EE730F0004C18BF31F08D
:100E3000004CCAD130F000427FF45CAF31F0004387
:100E40007FF43CAF5FE700BF4FF0FF3C06E000BF20
:100E50004FF0010C02E000BF4FF0010C4DF804CD43
:100E60004FEA40024FEA41037FEA226C18BF7FEA53
:100E7000236C11D001B052EA530C18BF90EA010F55
:100E800058BFB2EB030088BFC81738BF6FEAE170E4
:100E900018BF40F0010070477FEA226C02D15FEA80
:100EA000402C05D17FEA236CE4D15FEA412CE1D0EC
:100EB0005DF8040B704700BF844608466146FFE7B3
:100EC0000FB5FFF7C9FF002848BF10F1000F0FBD95
:100ED0004DF808EDFFF7F4FF0CBF012000205DF88E
:100EE00008FB00BF4DF808EDFFF7EAFF34BF012013
:100EF00000205DF808FB00BF4DF808EDFFF7E0FFAC
:100F000094BF012000205DF808FB00BF4DF808EDFC
:100F1000FFF7D2FF94BF012000205DF808FB00BF5F
:100F20004DF808EDFFF7C8FF34BF012000205DF841
:100F300008FB00BF4FEA40024FEA41037FEA226C00
:100F400002D15FEA402C08D17FEA236C02D15FEA2C
:100F5000412C02D14FF0000070474FF00100704764
:100F60004FEA4002B2F1FE4F0FD34FF09E03B3EBB6
:100F700012620DD94FEA002343F0004310F0004FF6
:100F800023FA02F018BF404270474FF0000070474C
:100F900012F1610F01D1420205D110F0004008BFEB
:100FA0006FF0004070474FF00000704703685A0030
:100FB0004CBF43F0004323F000431844704700BF88
:100FC0002DE9F84329B34F1E044615463E464FF01F
:100FD000000808EB060101EBD171491004EBC109CF
:100FE0004846FFF7E3FF0346C80008308F4220441D
:100FF00009D0AB4209D8FFF7D9FF0138A8420AD27D
:1010000001F10108E5E7AB4205D9884501D04E1E44
:10101000DFE74FF000094846BDE8F883012807D014
:10102000022807D0044B00280CBF18460020704748
:101030000248704702487047E1160008E5160008AC
:10104000E916000830B5244B044683B08D1E3BB32F
:10105000284601A9AFF30080E8B101992A46FFF7BD
:10106000AFFF0146B8B1FFF7A1FF4B68A064012BA9
:101070002DD0002B26DB081DFFF798FF0023C4E9C5
:1010800013030368002B12DBFFF790FF03460020D9
:10109000236103B030BD00230920236103B030BDBC
:1010A0000E4B0F491846C91AC9100191D6E7C3F370
:1010B0000360FFF7B3FF0028206114BF0020092060
:1010C00003B030BD0123081DC4E91303D9E7002391
:1010D00005202361DDE700BF0000000004310108A6
:1010E0003C330108036810B5DA07044606D49B07B1
:1010F00000F1480009D500F041FC2368590709D5E3
:101100001A070ED5DB0613D510BD00F02FFC23689F
:101110005907F5D404F1D00000F038FC23681A0711
:10112000F0D404F5A87000F039FC2368DB06EBD49A
:1011300004F5E870BDE8104000F074BC0346006898
:1011400000B11844704700BF09207047704700BFC6
:1011500070B504460E462046316CFFF773FF054616
:1011600088B9326C21466261012032462369984772
:101170000828F0D0072806D12846316CFFF7E6FF93
:10118000301D00F0E7FB08F0B1FA00BF2DE9F04791
:1011900006464FF0000CADF5727D03AD0C1D914677
:1011A0000FCC0FC50FCC0FC50FCC0FC594E80F00A7
:1011B000F768D6F8188085E80F0002ADC5F800C0C2
:1011C00021E02B6C4FF4F072736129467AA800F08D
:1011D00035FE314634697AAA5046A047889BCDE94E
:1011E000005804466B644946334632460120B847EE
:1011F0000346F0B94FF4F07228467AA9994600F0F8
:101200001DFE082C1BD13046296CFFF71BFF09F18E
:10121000090904465FFA89FA0028D2D0AB6B32463E
:10122000CDE9005801206B644AF010013346B847FD
:1012300000B1092420460DF5727DBDE8F087072C2A
:10124000F7D14846296CFFF781FF03A800F082FB25
:10125000406C70474FF0FF3CF0B5CB6BF9B00B64BE
:101260000E1D01AC0F4605460FCE0FC40FCE0FC4A6
:101270000FCE0FC496E80F0084E80F00CDF800C031
:1012800006E06A4629462B6998470828044608D193
:1012900028461099FFF7D6FE0028F2D0092079B031
:1012A000F0BD6846FFF71EFF062CF7D139462846E9
:1012B000FFF74EFF30B4DD6BC160826119461D64DB
:1012C000002230BC62E700BF70B54369C6680B649A
:1012D000AEB90A46036904460D4601460220984706
:1012E000072805D008280FD129462046FFF730FFF0
:1012F0003046296CFFF72AFF281D00F02BFB012246
:10130000FFF744FF08F0F2F908F0F0F9C2682AB1DB
:1013100010B4CC6B00220C6410BC37E79AE700BF16
:10132000704700BF836801460BB101201847704722
:10133000012912D009D873B90F2A0CD800EB82000A
:1013400042681846009B1A6070470339012994BF10
:10135000012002207047022070470846704700BFF6
:10136000002310B584B003AC0A4600941946FFF779
:10137000DFFF039804B010BD012912D009D873B95A
:101380000F2A0CD8009900EB8202096818465160B8
:1013900070470339012994BF0120022070470220C1
:1013A00070470846704700BF30B500230D4685B032
:1013B00003AC039219462A460094FFF7DDFF05B0FF
:1013C00030BD00BF4FF0FF3CF0B5D36BADF50F7DE6
:1013D0001364151D17AC07460E460FCD0FC40FCD75
:1013E0000FC40FCD0FC495E80F0084E80F00CDF8AF
:1013F00058C012E00C2116A86A46FFF7D5FF314607
:1014000016A8B84778B969460820049B16AA9847D9
:101410000528044608D0092805D068462699FFF714
:1014200011FE0028E6D0092416A8FFF75BFE20462F
:101430000DF50F7DF0BD00BF2DE9F04FCC6C1746C8
:1014400054F8042B89B00D461E4600F0030806949C
:10145000002B79D00221130C8DF81D301204DBB261
:1014600004EB830405928DF81C102B6DB8F1020F6C
:1014700008BFAC6B13F001030CD0384605A900F08F
:101480006BFB18B9082009B0BDE8F08F092009B03E
:10149000BDE8F08FD4F800A0BAF1000FEDD00193B1
:1014A00000F008030293022E4AD0B4F800A0B4F86A
:1014B00002900434AA6C0F21384629F0010B9344A2
:1014C000FFF74EFF834539D82AF001025A44824281
:1014D00094BF002001204FEA490303F002030AF001
:1014E000010A43EA0A03012B49D0022B32D0002B18
:1014F000CCD1B8F1000F02D0002840F0CD800434E8
:10150000D4F800A0BAF1000FCDD1384605A900F0FB
:1015100023FB0028BAD1019B002BB3D00F21384602
:10152000FFF71EFF0E2102463846FFF73DFF384603
:101530000F216A4AFFF738FF0720A8E70020CAE713
:10154000D4F804900834B5E7032312020592ADF8ED
:101550001C308AE7236823F0004BB8F1000F45D117
:1015600028B1029A002A5CD0BBF1000F74D0002B86
:1015700000DA04340BF1010B04EB8B04C0E7B8F183
:10158000000F19D1B0B1D4E90023991C4FEAD272EF
:101590003FF47CAF05F158010133049100F09080D5
:1015A000201DFFF7CBFD04AB01462846AFF30080BA
:1015B00000285BD10834A3E70D213846D5F82090E8
:1015C000FFF7CEFE8145F5D1AB6A9C42F2D12046B1
:1015D000FFF7ECFC0F2102463846FFF7E5FE3846E0
:1015E0002A460021FFF7E0FE072050E70D2138468C
:1015F000D5F82090FFF7B4FE814501D02368B6E707
:10160000AB6A9C42FAD104220021C5E90B12A3184F
:10161000C5F828B06B6323688B4259DB0123019323
:10162000A8E705F15803CDF80C809146B04604F1C7
:10163000040A1E460EE050460496FFF77FFD002286
:10164000014604AB2846AFF3008009F101090AF115
:10165000040AE0B9D945EED138460D21FFF780FEE6
:10166000049B2862C5E90934062010E781460D2154
:101670003846FFF775FEB9F1020F286225D12B46D7
:10168000049A43F82C2F6B620620AC62FFE64646B4
:101690002368DDF80C806AE72046FFF787FC0246E6
:1016A0000434AC6328461446AFF3008000283FF4AE
:1016B000EDAE384622460F21FFF776FE0720E6E61C
:1016C00038460D21FFF74CFE2862049B6B62DBE776
:1016D0000BF1010004EB80007AE700BF000000007E
:1016E0000023A9E60123A7E60223A5E62DE9F0439E
:1016F000064615461C46C3B0042900F2B280DFE856
:1017000001F09650B0270300002C40F0AA80102A68
:1017100000F2A7800368D80600F1EB8020AF3846BE
:1017200000F08AF900230120B26B00FA03F129428C
:101730001CBF52F8041B47F823100133042BF4D1CB
:101740003846B26300F06EF9002043B0BDE8F08384
:10175000032C40F0868094B204EB1243102B4FEA26
:1017600012457ED803681F0700F1CB8020AF3846B2
:1017700000F036F907EBC501B56B54B10B4601EB30
:10178000C401E81AE4001A5843F8042B8B42FAD13A
:1017900025443846B56300F001F9002043B0BDE8A8
:1017A000F083012C4FEA124895B256D0052C58D13F
:1017B00008EB0509B9F1200F53D8B8F10F0F73D911
:1017C000A946002D40F08480B36B65B320AF4FF085
:1017D000000907EBC807043F03EBC50553F8041BDA
:1017E000AB4247F8041FF9D1B9F1000F0FD06F4693
:1017F0004146102938BF102107EBC101843903EBA2
:10180000C90553F8040BAB4241F8040FF9D1012C80
:101810007FD0B8F10F0FB56342D9B9F1000F02D0F4
:10182000684600F0B3F8002043B0BDE8F083C4B9C7
:1018300023460124826B371DA8B204FA03F101424A
:101840001CBF52F8041B47F823100133102BF4D1AE
:1018500015F40050E7D1B26304E008EB0503102B48
:1018600003D9022043B0BDE8F083B8F10F0FF8D8D8
:101870003368DA0706D5304623F0030340F8483BC7
:1018800000F078F820AF384600F074F8B36B002D04
:101890009DD11D4604353846B56300F067F8C2E7B0
:1018A00020A800F06BF8B8E7B9F1100F3FD9A9F103
:1018B00010093368D90708D5304623F0010343F0F7
:1018C000020340F8483B00F05DF8B9F1000F31D059
:1018D00033685A071FD4B8F10F0F24D96F46C8F1E7
:1018E0001005384600F056F8002DB36B80DD20AFB0
:1018F0006FE723F01003336006F5E87000F09CF802
:101900000CE723F00803036000F5A87000F068F806
:101910002CE720AFBEE7304623F0040340F8D03B6D
:1019200000F038F8D7E720A800F02CF8D6E74FF001
:101930000009BEE7B8F10F0F3FF646AF20AF3846BB
:1019400000F020F8B36B002D7FF441AF384600F073
:1019500015F868E700F1340191E838009C46A64686
:101960004CF8045D90E8FF0FE54600BD90EC210BBC
:10197000704700BF80EC210B704700BF90EC200B3C
:10198000704700BF80EC200B704700BFD0EC200BED
:10199000704700BFC0EC200B704700BFF0EC0201A5
:1019A000F0EC0211F0EC0221F0EC0231F0EC02411B
:1019B000F0EC0251F0EC0261F0EC0271F0EC02810B
:1019C000F0EC0291F0EC02A1F0EC02B1F0EC02C1FB
:1019D000F0EC02D1F0EC02E1F0EC02F1704700BF54
:1019E000E0EC0201E0EC0211E0EC0221E0EC02315B
:1019F000E0EC0241E0EC0251E0EC0261E0EC02714B
:101A0000E0EC0281E0EC0291E0EC02A1E0EC02B13A
:101A1000E0EC02C1E0EC02D1E0EC02E1E0EC02F12A
:101A2000704700BFB0FC0181B0FC0191B0FC01A186
:101A3000B0FC01B1704700BFA0FC0181A0FC019186
:101A4000A0FC01A1A0FC01B1704700BFEC4600B5AD
:101A50002DE900502DE9FF1F4FF000032DE90C0088
:101A600001A9FFF7F7FBDDF840E012B0704700BFB7
:101A7000EC4600B52DE900502DE9FF1F4FF00003A3
:101A80002DE90C0001A9FFF71FFCDDF840E012B0C2
:101A9000704700BFEC4600B52DE900502DE9FF1F4F
:101AA0004FF000032DE90C0001A9FFF72FFCDDF832
:101AB00040E012B0704700BFEC4600B52DE9005081
:101AC0002DE9FF1F4FF000032DE90C0001ABFFF7DC
:101AD000F1FBDDF840E012B0704700BFEC4600B506
:101AE0002DE900502DE9FF1F4FF000032DE90C00F8
:101AF00001AAFFF767FCDDF840E012B0704700BFB5
:101B0000027A7AB9437AA3B103214268013B10B447
:101B100043721368141D01721A024460026010BC03
:101B2000180E70470368013A02721A020260180E1A
:101B30007047B020704700BF002300B585B003AAEE
:101B4000009219460C22FFF7F3FB039805B05DF8ED
:101B500004FB00BFF0E700BF2DE9F04305460E4649
:101B60004FF0000885B03046FFF7CAFFB0280446A2
:101B700000F0B180070620D500F0F003802B4DD097
:101B8000902B36D0A02B60D0B02B73D0C02B00F0A0
:101B90008A8000F0F803D02B0BD100F0070201324D
:101BA00042F40022052301212846FFF79FFD00286B
:101BB000D9D0092005B0BDE8F08300230DF10C0950
:101BC00019460D228700CDF800902846FFF7B0FB9C
:101BD000FFB2039B043760064CBFDF1BFF180023D6
:101BE0000D2219462846CDF800900397FFF7C4FB55
:101BF000B9E700F00D030D2BDBD0002303AF19462E
:101C000000F00F0200972846FFF792FB00230D22F9
:101C1000194628460097FFF7AFFBA4E73046FFF7C9
:101C20006FFF24022043B0F5004FC2D0002304010F
:101C300019462846A2B2FFF759FD0028B9D114F47D
:101C4000004F18BF4FF001088DE7C3434FF47F6288
:101C500003F007031A410023010702F47F6248BF23
:101C600042F4804219462846FFF740FD00283FF421
:101C70007AAF9EE7B12833D0B22800F08B80B3282A
:101C800039D000F0FC03B42B93D0012300F00702FD
:101C90001A4442F4002219462846FFF727FD00287F
:101CA0003FF461AF85E7C62842D0C7284CD000F08A
:101CB000F803C02B5BD0C82860D0C9287FF479AF67
:101CC0003046FFF71DFF020300F00F0002F4702200
:101CD0000130024366E7B8F1000F18D0002069E731
:101CE0003046FFF70DFF024600283FF462AF10F0C8
:101CF000F003D0D05DE73046FFF702FF0123010378
:101D000000F00F0001F47021C2180A43C3E703ACCE
:101D100043460E22414628460094FFF709FB284619
:101D200043460F2241460094FFF726FB404641E719
:101D30003046FFF7E5FE010300F00F0001F47021CB
:101D4000421C03230A43A6E73046FFF7D9FE0246AA
:101D500000283FF42EAF10F0F0037FF42AAF0421E7
:101D60002846FFF7C3FC00283FF4FDAE21E700F052
:101D70000F020132032342F420228CE73046FFF7A2
:101D8000BFFE00F0F00200F00F031032013343EA0F
:101D9000023207E700230DF10C090D2219462846EF
:101DA000CDF80090FFF7C4FA3046FFF7A9FE02060F
:101DB0004FF002040CD5039B00F07F00A0400344C9
:101DC00030460393FFF79CFE030604F10704F2D4A8
:101DD0000023039A00F07F0000FA04F402F5017278
:101DE000144419460D222846CDF800900394FFF7BD
:101DF000C3FAB8E610B50324C36C84B05A688DF8F2
:101E00000C40DC7912020833084601A901928DF8D2
:101E10000D400293FFF7A0FE04B010BD08B5FFF718
:101E200099FE806C08BD00BF08B5FFF793FEC06C3B
:101E3000C379023300EB830008BD00BF844641EA4A
:101E4000000313F0030349D1403A23D30B68036026
:101E50004B6843608B688360CB68C3600B69036128
:101E60004B6943618B698361CB69C3610B6A036210
:101E70004B6A43628B6A8362CB6AC3620B6B0363F8
:101E80004B6B43638B6B8363CB6BC36340304031DD
:101E9000403ADBD230320BD30B6803604B684360AF
:101EA0008B688360CB68C36010301031103AF3D276
:101EB0000C3205D351F8043B40F8043B043AF9D204
:101EC000043208D0D2071CBF11F8013B00F8013BD7
:101ED00001D30B8803806046704700BF082A13D3E4
:101EE0008B07B1D010F00303AED0C3F10403D21AB4
:101EF000DB071CBF11F8013B00F8013BA4D331F80C
:101F0000023B20F8023B9FE7043AD9D3013A11F88B
:101F1000013B00F8013BF9D20B7803704B7843701A
:101F20008B7883706046704780EA010C1CF0030FC9
:101F300037D110F0030C20F0030021F0030150F81A
:101F4000042B08BF51F8043B0ED08CF0030C6FF04B
:101F50007F434FEACC0C23FA0CFC51F8043B42EAD5
:101F60000C0243EA0C0300BFA2F1013C9A4201BFFC
:101F70002CEA020C1CF0803F50F8042B51F8043B73
:101F8000F2D04FEA02604FEA1222012828BFB0EBDC
:101F9000036F08BF1B0AF4D003F0FF03000EC01A42
:101FA000704710F0030F0AD010F8012B11F8013B15
:101FB000012A28BF9A42F4D0A2EB030070474DF8E3
:101FC000045D50F8042B01F0030521F0030151F8E2
:101FD000043B022D26D04DD822F07F45B5EB132FC0
:101FE000A2F1013C2CEA020C0DD11CF0803C08BF90
:101FF00051F8043B0AD185EA0205B5EB036F0CD119
:1020000050F8042BE8E74FEA13235BE03CF07F4CE9
:1020100054D10B784FEA126554E04FEA126503F091
:10202000FF034FE04FEA0245A2F1013C4FEA15459C
:102030002CEA020CB5EB134F18D11CF0803C08BF02
:1020400051F8043B07D185EA0205B5EB034F09D1EE
:1020500050F8042BE6E75FEA0C4C2FD10B884FEACF
:1020600012452FE04FEA03434FEA12454FEA13436C
:1020700028E000BF02F0FF05B5EB136FA2F1013CB1
:102080002CEA020C0DD11CF0803C08BF51F8043B37
:102090000AD185EA0205B5EB032F0AD150F8042BCB
:1020A000E8E74FEA13630DE012F0FF0F06D051F896
:1020B000043B4FEA122523F07F4303E04FF000007A
:1020C00020BC704705F0FF0203F0FF00012828BF85
:1020D000904204BF2D0A1B0AF4D0A2EB000020BCE2
:1020E000704700BF4FF0FF3C06E000BF4FF0010C0F
:1020F00002E000BF4FF0010C4DF804CD4FEA410C57
:102100007FEA6C5C4FEA430C18BF7FEA6C5C1BD023
:1021100001B050EA410C0CBF52EA430C91EA030FA4
:1021200002BF90EA020F0020704710F1000F91EA01
:10213000030F58BF994208BF90422CBFD8176FEACF
:10214000E37040F0010070474FEA410C7FEA6C5C9D
:1021500002D150EA013C07D14FEA430C7FEA6C5CA4
:10216000D6D152EA033CD3D05DF8040B704700BFD0
:102170008446104662468C461946634600E000BF1E
:1021800001B5FFF7B7FF002848BF10F1000F01BDF0
:102190004DF808EDFFF7F4FF0CBF012000205DF8BB
:1021A00008FB00BF4DF808EDFFF7EAFF34BF012040
:1021B00000205DF808FB00BF4DF808EDFFF7E0FFD9
:1021C00094BF012000205DF808FB00BF4DF808ED2A
:1021D000FFF7CEFF94BF012000205DF808FB00BF91
:1021E0004DF808EDFFF7C4FF34BF012000205DF873
:1021F00008FB00BF4FEA410C7FEA6C5C02D150EA59
:10220000013C0AD14FEA430C7FEA6C5C02D152EAEE
:10221000033C02D14FF0000070474FF001007047BF
:102220004FEA410212F5001215D211D56FF47873FE
:10223000B3EB625212D94FEAC12343F0004343EAA1
:10224000505311F0004F23FA02F018BF404270477C
:102250004FF00000704750EA013005D111F0004006
:1022600008BF6FF0004070474FF00000704700BF9C
:102270004A0011D212F5001211D20DD56FF4787305
:10228000B3EB62520ED44FEAC12343F0004343EA5A
:10229000505323FA02F070474FF00000704750EAA5
:1022A000013002D14FF0FF3070474FF0000070470F
:1022B00053B94AB9002908BF00281CBF4FF0FF31AD
:1022C0004FF0FF3000F0A6B9ADF1080C6DE904CE77
:1022D00000F03EF8DDF804E0DDE9022304B07047C9
:1022E00038B50C4605462146284600220023FFF754
:1022F00059FF28B928462146BDE8384000F00AB801
:10230000284604F1004100F005F8404261EB41012C
:1023100038BD00BFD0B500220B4B06460F46FEF776
:10232000D3F8FFF7A5FF0446FEF754F80022074B49
:10233000FEF7CAF802460B4630463946FDF70CFF59
:10234000FFF796FF2146D0BD0000F03D0000F041B0
:102350002DE9F047089E0D4604468E46002B40F0BE
:1023600083808A42174647D9B2FA82F34BB1C3F150
:10237000200105FA03FE20FA01F19F4041EA0E0E0A
:102380009C404FEA1748BEFBF8FC1FFA87F908FB90
:102390001CE20CFB09F0210C41EA024290420AD9EE
:1023A000BA180CF1FF3180F01881904240F215818B
:1023B000ACF1020C3A44121AB2FBF8F008FB1022FE
:1023C00000FB09F1A4B244EA0244A14209D93C1934
:1023D00000F1FF3280F00381A14240F20081023817
:1023E0003C44641A002140EA0C401EB10022DC404B
:1023F000C6E90042BDE8F08702B9FFDEB2FA82F317
:10240000002B4FD18D1A01214FEA124E1FFA82F88C
:10241000B5FBFEFC0EFB1C5508FB0CF0220C42EA3F
:102420000545A84207D97D190CF1FF3202D2A84216
:1024300000F2E98094462D1AB5FBFEF00EFB105514
:1024400008FB00F8A4B244EA0544A04507D93C19AA
:1024500000F1FF3202D2A04500F2D9801046A4EB71
:10246000080440EA0C40C0E78B4208D9002E00F077
:10247000B1800021C6E900050846BDE8F087B3FA3F
:1024800083F100294BD1AB4202D3824200F2B980E2
:10249000841A65EB030301209E46002EAAD0C6E9EC
:1024A000004EA7E79F40C3F12002D1404FEA174EEC
:1024B000B1FBFEF01FFA87F80EFB101124FA02F2AE
:1024C0009D4000FB08FC2A43150C45EA0145AC453C
:1024D00004FA03F409D97D1900F1FF3180F08F80EF
:1024E000AC4540F28C8002383D44A5EB0C05B5FBB1
:1024F000FEF10EFB115C01FB08F995B245EA0C45B3
:10250000A94507D97D1901F1FF3274D2A94572D9C5
:1025100002393D44A5EB090541EA004178E7C1F1E4
:1025200020078B4022FA07FC4CEA030C25FA07F43B
:102530004FEA1C4EB4FBFEF91FFA8CF80EFB19444F
:1025400020FA07F309FB08FA8D401D432B0C43EAE0
:102550000444A24502FA01F200FA01F309D91CEB86
:10256000040409F1FF3048D2A24546D9A9F1020975
:102570006444A4EB0A04B4FBFEF00EFB104400FB21
:1025800008FAADB245EA0444A24508D91CEB04049C
:1025900000F1FF352DD2A2452BD90238644440EA20
:1025A0000940A0FB0289A4EB0A044C45C6464D46EF
:1025B00019D316D05EB1B3EB0E0264EB050404FA36
:1025C00007F722FA01F31F43CC40C6E9007400214B
:1025D000BDE8F087314630460CE78C46EBE6104606
:1025E000FFE64345E6D2B8EB020E69EB0C05013875
:1025F000E0E72846D3E711468CE78146B9E708466D
:1026000073E7084649E7ACF1020C3D4413E7023892
:102610003C4424E7704700BF10B584B00023019309
:10262000029303931C481D4A02604FF4807282603B
:102630000122027303754FF46022C26143600223DA
:10264000036102F0AFFDF0B900230193012302936F
:102650000723039301A9104802F000FCB0B901233D
:1026600001930223029301A90B4802F0F7FB80B902
:10267000094C204602F01AFE02220949204602F0C7
:10268000CDFC04B010BD00F0E5F9DDE700F0E2F9A3
:10269000E5E700F0DFF9EBE7240A00200024014021
:1026A000980A002010B586B0002302930393049388
:1026B000059302681E4B9A4201D006B010BD044635
:1026C00003F56C439A6942F400729A619A6902F4C4
:1026D00000720092009A9A6942F004029A619B6922
:1026E00003F004030193019B03230293039302A9C4
:1026F000104803F085FD1048104B03600023436031
:1027000083608023C3604FF4807303614FF4806360
:102710004361202383614FF44053C36103F08CFA7B
:1027200018B9054B23625C62C7E700F093F9F8E73C
:102730000024014000080140540A00200800024023
:1027400010B58AB02248234B036004234360002362
:102750008360C3604FF4802202614FF40012426133
:102760000376437601228276C3760377437702F0BD
:102770001DFE30BB002305930693012207920093B0
:10278000019302930393049308920E2309936946DD
:102790000F4802F0B1FEB8B90D4C204602F02BFFF5
:1027A0000D49204603F072F80C4B5A680C4B1A6026
:1027B00000225A60DA609A60082119611A750AB01D
:1027C00010BD00F047F9D5E700F044F9E4E700BF99
:1027D000080B0020006400407F8F0300E4110020FC
:1027E000EC0A002070B586B0002302930393049393
:1027F000059302682C4B9A4201D006B070BD03F5D8
:10280000D633DA6942F00072DA61DA6902F00072F6
:102810000092009A9A6942F008029A619B6903F05B
:1028200008030193019B4FF48073029300240394E7
:1028300004941E4E02A9304603F0E2FC4FF40073EC
:102840000293022303930325059502A9304603F062
:10285000D7FC174A536823F4C04343F0E06343F4C2
:102860008043536022462946132003F065F9132064
:1028700003F096F922462946142003F05DF914204E
:1028800003F08EF922462946152003F055F915204C
:1028900003F086F922462946162003F04DF916204A
:1028A00003F07EF9A9E700BF00640040000C01407E
:1028B0000000014008B50A46044B0146044802F0F6
:1028C000C8FE00B908BD00F0C5F8FBE7040B002006
:1028D000080B002008B50E4B0E4A002102F027FF1E
:1028E00090B90C4B1868C309C0F3C71200F07F0001
:1028F00022B1094A5268DBB29A4204D1054B1A69E7
:10290000034906F08DF908BD00F0A4F8E9E700BF1F
:10291000C80A0020D00A0020E411002000B583B0CE
:10292000124B5A6942F001025A615B6903F00103DC
:102930000193019B002211460B2003F0FDF80B20B0
:1029400003F02EF9002203210E2003F0F5F80E20EB
:1029500003F026F9002203210F2003F0EDF80F20E9
:1029600003F01EF903B05DF804FB00BF0010024045
:10297000F0B589B000240494059406940794314B73
:102980009A6942F010029A619A6902F0100200926C
:10299000009A9A6942F020029A619A6902F0200234
:1029A0000192019A9A6942F004029A619A6902F0CE
:1029B00004020292029A9A6942F008029A619B69A3
:1029C00003F008030393039B1F4F22464FF4C041BB
:1029D000384603F02CFD1D4D22463C21284603F0CD
:1029E00026FD01224FF40041284603F020FD4FF45C
:1029F000C04304930126059602230693079304A976
:102A0000384603F0FDFB48F23C0304930596069418
:102A10000323079304A9284603F0F2FB41F20403C1
:102A200004930594069604A9094803F0E9FB4FF4C2
:102A3000E06304930594069604A9284603F0E0FB9E
:102A400009B0F0BD00100240001001400008014034
:102A5000000C014072B6FEE700B595B000230D935F
:102A60000F9310930593069307930893099301938B
:102A700002930393049301210A914FF480320B9245
:102A80000C930E910223119312924FF4E0131393BF
:102A90000AA803F0E9FCC8B90F23059302210691A7
:102AA000002307934FF480620892099305A803F06E
:102AB0000DFF68B9022301934FF40043039301A86B
:102AC00003F0E0FF30B915B05DF804FBFFF7C2FF7B
:102AD000FFF7C0FFFFF7BEFF08B502F049F9FFF7A7
:102AE000BBFFFFF745FFFFF719FF00F035FB00F0D4
:102AF0000DF800F055F900F03FFA00F08BF9FFF700
:102B00008BFDFFF71DFE05F0D7FEFEE708B5104868
:102B1000104B03604FF482734360002383604FF4D3
:102B20000062C26002220261012242614FF400721F
:102B300082611022C2610362436283620A23C3621C
:102B400004F020F900B908BDFFF784FFFBE700BFE0
:102B5000300B00200030014010B586B000230293F6
:102B600003930493059302681A4B9A4201D006B06E
:102B700010BD03F560439A6942F480529A619A69E4
:102B800002F480520092009A9A6942F008029A6117
:102B90009B6903F008030193019B282302930223FE
:102BA0000393032305930C4C02A9204603F028FB52
:102BB0001023029300230393049302A9204603F0F9
:102BC0001FFB064A536843F0E06343F00103536080
:102BD000CDE700BF00300140000C01400000014083
:102BE00082B00E4B9A6942F001029A619A6902F032
:102BF00001020092009ADA6942F08052DA61DB69E0
:102C000003F080530193019B054A536823F0E0636E
:102C100043F00073536002B0704700BF00100240E1
:102C200000000140FEE7FEE7FEE7FEE7FEE7704733
:102C30007047704708B502F0ADF808BD08B5024806
:102C400003F0DAF808BD00BF540A002008B50248B6
:102C500003F0D2F808BD00BFAC0C002008B5024854
:102C600003F0CAF808BD00BF680C002008B5024890
:102C700002F02AFE08BD00BF080B002008B502487C
:102C800002F022FE08BD00BF080B002008B5024874
:102C900002F01AFE08BD00BF080B002008B502486C
:102CA00002F012FE08BD00BF080B002008B505F0B9
:102CB00075FF08BD08B505F093FF08BDF0B583B0FA
:102CC000174B1B681A6812F0100F04D1144805F056
:102CD00033F803B0F0BD002601961A6801925B68D4
:102CE0000193019B0E4F384604F02AFF0D4B1B68E1
:102CF0005B68C3F18003DBB20B4C237021780B4D72
:102D00000B4B1B682846984722783146284606F028
:102D1000DDFF267080222946384605F0FFF9D5E709
:102D2000F00C0020680C0020380D00203C0D002025
:102D3000640C00200120704708B506F0DFFC162364
:102D400003604FF0FF3008BD08B54FF0FF31FFF7CB
:102D5000F3FFFEE710B503460C4A0D490D48006825
:102D600040B10C4800680344521A934206D8094AFD
:102D7000136010BD0748084C0460F2E706F0BEFC83
:102D80000C2303604FF0FF30F3E700BF005000203A
:102D900000040000880B0020F81700207047000096
:102DA00000B587B000230293039304930593009327
:102DB00001931648164A026047224260836042F23D
:102DC0000F72C260036143618023836104F08AFA59
:102DD00090B94FF48053029302A90C4804F085FB8C
:102DE00068B90023009301936946084804F07CFC0D
:102DF00040B907B05DF804FBFFF72CFEE9E7FFF7E9
:102E000029FEEEE7FFF726FEF3E700BF8C0B00205C
:102E1000002C014000B587B0002302930393049374
:102E20000593009301931548154A026047224260BA
:102E300083603122C26003618023836104F052FA0F
:102E400090B94FF48053029302A90C4804F04DFB53
:102E500068B90023009301936946084804F044FCD4
:102E600040B907B05DF804FBFFF7F4FDE9E7FFF7B1
:102E7000F1FDEEE7FFF7EEFDF3E700BF1C0C0020CD
:102E80000008004000B585B003681F4A934208D08F
:102E9000B3F1804F18D01D4A934221D005B05DF8A0
:102EA00004FB1B4B9A6942F400629A619B6903F42C
:102EB00000630193019B00220521192002F03CFED2
:102EC000192002F06DFEE9E703F50433DA6942F0F8
:102ED0000102DA61DB6903F001030293029BDDE783
:102EE0000B4BDA6942F00402DA61DB6903F0040398
:102EF0000393039B002211461E2002F01DFE1E209C
:102F000002F04EFECAE700BF002C0140000800405E
:102F10000010024000B587B000230293039304938E
:102F200005930368B3F1804F02D007B05DF804FB4E
:102F300003F504339A6942F008029A619B6903F031
:102F400008030193019B4FF4406302930223039310
:102F50000323059302A9064803F052F9054A536872
:102F600023F4407343F0E06343F400735360DCE701
:102F7000000C01400000014010B58EB000230A9300
:102F80000B930C930D93089309930193029303936E
:102F900004930593069307932A484FF080420260FA
:102FA0004360836040F2FF32C2600361836104F0DA
:102FB00099F9002833D14FF480530A930AA9214884
:102FC00004F093FA70BB1F4804F0B8F968BB002303
:102FD0000893099308A91B4804F086FB40BB6023B3
:102FE00001930023029303930593082201A9154836
:102FF00004F002FAF8B90C2201A9124804F0FCF915
:10300000E0B9104C0821204604F000FB0C212046BA
:1030100004F0FCFA2046FFF77DFF0EB010BDFFF76D
:1030200019FDC8E7FFF716FDCDE7FFF713FDCEE763
:10303000FFF710FDD3E7FFF70DFDDCE7FFF70AFD13
:10304000DFE700BFD40B0020F0B587B00023029368
:103050000393049305930268354B9A4201D007B05D
:10306000F0BD044603F558439A6942F480429A61E0
:103070009A6902F480420092009A9A6942F008022A
:103080009A619B6903F008030193019B402302931B
:103090000223039303230593264F02A9384603F026
:1030A000AFF88026029600250395049502A93846BC
:1030B00003F0A6F8204A536843F0E06343F00403AA
:1030C00053601E481E4B036045608560C660056105
:1030D000456185614FF48053C36102F0ADFD00BBD3
:1030E000164BE3635C621748174B03601023436081
:1030F000002383608022C2600361436183614FF4D7
:103100008053C36102F098FD70B90E4BA3635C62FB
:1031100000221146252002F00FFD252002F040FD7F
:103120009DE7FFF797FCDBE7FFF794FCEDE700BFB7
:1031300000380140000C014000000140680C0020F4
:1031400058000240AC0C002044000240014B1860C3
:10315000704700BF640C002010B51348134B036088
:103160004FF4E133436000238360C36003610C22AA
:1031700042618361C36104F0E4FB88B90A4C2268B0
:10318000D36843F01003D360204605F089F808485F
:10319000FFF7DCFF80220749204604F0BFFF10BD87
:1031A000FFF758FCEAE700BFF00C002000380140B0
:1031B0002D9200083C0D0020FFF7F0FD0B480C4954
:1031C0000C4A002302E0D458C4500433C4188C4283
:1031D000F9D3094A094C002301E013600432A242EA
:1031E000FBD306F091FAFFF777FC70470000002050
:1031F000040A00204C330108080A0020F4170020BC
:10320000FEE710B5044603685B69984723689B692D
:103210002046984710BD000038B50446C1F30901A7
:10322000818001F58073C3F3090343812D4D35F986
:103230001330838135F91150C58082EAE271A1EB28
:10324000E27141F2DB3202FB01F2C2F30B3283EA9C
:10325000E371A1EBE37189B202FB01F1C1F30F311C
:10326000C181002DB8BF6D42ADB202FB05F2C2F3C1
:103270000F32028103681B699847B4F90C30002BA8
:1032800010DD23681B6A0022012120469847B4F90B
:103290000630002B16DD23685B6A002201212046E0
:1032A000984738BD002B06DB23681B6A01221146B4
:1032B00020469847EBE723681B6A0122002120463D
:1032C0009847E4E7002B06DB23685B6A012211467E
:1032D00020469847E5E723685B6A012200212046E3
:1032E0009847DEE76821010808B50368DB6998475D
:1032F00008BD38B504460025C581058103681B69F2
:103300002A462946984723681B6A2A4629462046AA
:10331000984723685B6A2A4629462046984738BD65
:1033200010B504460021C181018103681B690A466A
:10333000984723681B6A0122114620469847236854
:103340005B6A012211462046984710BD0023C360E6
:103350000161704710B4C3681944C16044682368B0
:1033600091FBF3F2036913440361226891FBF2F3CA
:1033700002FB1311C16010BC704738B504460D46FE
:103380000369CA1A03D121612369236038BD002A69
:1033900015DD002B09DB8168FFF7DCFF2369AB42F9
:1033A000F2DB0023E3602561EEE78168FFF7D2FFDF
:1033B0002369002BE8DB0023E3602361E4E7002AB4
:1033C000E2DA002B0ADD81684942FFF7C3FF236977
:1033D000002BD9DC0023E3602361D5E781684942F3
:1033E000FFF7B8FF2369AB42CEDC0023E360256121
:1033F000CAE78160704708B54368D3F8B4305969AB
:10340000FFF7F7FF08BD8160704708B54368D3F840
:10341000B4301969FFF7F7FF08BD0023C3600161ED
:10342000704710B4C3681944C1604468236891FBB5
:10343000F3F2036913440361226891FBF2F302FB88
:103440001311C16010BC704738B504460D460369BE
:10345000CA1A03D121612369236038BD002A15DD12
:10346000002B09DB8168FFF7DCFF2369AB42F2DB4D
:103470000023E3602561EEE78168FFF7D2FF23694F
:10348000002BE8DB0023E3602361E4E7002AE2DAB3
:10349000002B0ADD81684942FFF7C3FF2369002B37
:1034A000D9DC0023E3602361D5E781684942FFF757
:1034B000B8FF2369AB42CEDC0023E3602561CAE795
:1034C00010B504460846E1602161FDF719FB01468D
:1034D0004FF07C50FDF71CFC606110BD10B5044638
:1034E0008368D3F8B4301969FFF7EAFFA368D3F80B
:1034F000B4301B69034A82FB0312DB17C3EBA21330
:10350000A36110BDD34D62100023C3610262436208
:103510008162704710B4436A194441628468236829
:1035200091FBF3F2836A13448362226891FBF2F306
:1035300002FB1311416210BC704710B4C3691944F7
:10354000C1618468236891FBF3F2036A1344036248
:10355000226891FBF2F302FB1311C16110BC7047AA
:10356000F8B50446836ACD1A2FD1036A82695142A5
:103570008B4206DB934204DC0023C3610362436297
:1035800003E0002B0ADC002B14DB216A2046FFF746
:10359000C1FFA36A2360236A6360F8BD21694942C1
:1035A0002046FFF7CAFF236A002BEEDC0023E3610D
:1035B0002362EAE721692046FFF7BFFF236A002B59
:1035C000E3DB0023E3612362DFE7066A56B9002DDF
:1035D00003DDC168FFF7B1FFD7E7C1684942FFF7D4
:1035E000ACFFD2E7002D43DD002E41DD8368D3F828
:1035F000B430DF68BE4230DC3046FDF781FA014668
:10360000FDF7D2FA6169FDF7CFFAFDF7A9FC85EA6B
:10361000E571A1EBE571884213DABE42B5DAE168E3
:103620002046FFF78AFF216AA368D3F8B420D26846
:103630009142AADB0022E261D3F8B430DB68236256
:10364000A3E7216949422046FFF777FF236A002B51
:103650009BDC0023E361236297E701694942FFF79E
:103660006CFF236A002B90DC0023E36123628CE76C
:10367000002D11DB002D5ADB002D86DD002E84DAB3
:1036800021692046FFF759FF236A002BFFF67DAF23
:103690000023E361236278E7002EEBDAA368D3F816
:1036A000B430DF687F42BE4235DB3046FDF728FA92
:1036B0000146FDF779FA6169FDF776FAFDF750FCEE
:1036C00085EAE571A1EBE571814218DDBE427FF725
:1036D0005CAFE16849422046FFF72FFF216AA268EC
:1036E000D2F8B430DB685B4299423FF74EAF00231B
:1036F000E361D2F8B430DB685B42236245E72169BD
:103700002046FFF71AFF236A002BFFF63EAF002387
:10371000E361236239E721692046FFF70EFF236A40
:10372000002BFFF632AF0023E36123622DE7002E6A
:10373000A2DD216949422046FFF7FFFE236A002BE4
:103740003FF723AF0023E36123621EE7C1600161FD
:103750004161C261704710B4C3680361C160CB1A94
:1037600082681468C269C2EB821204FB0323826977
:1037700013449A11C261A3EB82138361416101601A
:10378000426010BC7047C1607047002343610377FB
:103790008362C26203634163704710B4836A194451
:1037A00081628468236891FBF3F2C36A1344C362A5
:1037B000226891FBF2F302FB1311816210BC704787
:1037C00010B4036B194401638468236891FBF3F21E
:1037D000436B13444363226891FBF2F302FB131122
:1037E000016310BC70472DE9F84304460D461646A8
:1037F000036A934233D04FF00008C4F81480266265
:103800006562D4F82C9009EB0600FDF779F90746BC
:10381000A6EB0900FDF774F901463846FDF7C4F937
:103820000646606B281A4000FDF76AF901463046EB
:10383000FDF76EFAFDF794FB206184F81C80237F6E
:10384000002B38D0E36AEBB9A362E16A2046FFF7A8
:10385000B7FF636B2360E36A6360BDE8F883436A84
:103860008B42C8D1426981694FF47A7303FB01F33B
:103870009A4202DB01230377E1E783685B681A441D
:103880004261DCE7002B0BDDE16849422046FFF78F
:1038900084FFE36A002BD8DC0023A362E362D4E751
:1038A000E1682046FFF779FFE36A002BCDDB0023B8
:1038B000A362E362C9E721692046FFF76EFFC4E710
:1038C00038B504460D468368D3F8B4301969FFF75C
:1038D0005AFFA56138BD10B50446C0F8B4100830D1
:1038E000FFF789FD04F11C00FFF78FFD04F13000A4
:1038F000FFF7F4FDC82104F17C00FFF7E1FF10BDE4
:10390000C0F844117047C0F84811704710B503461D
:103910000A46016300290CDD816A80684068014421
:1039200059659968D1F8480101684C68596DA047FC
:1039300010BD002902DB816A4165F2E7816A806877
:103940004068091A5965ECE710B503681A695A61AD
:10395000C2690368891A196103681A69B2F5801F80
:1039600002DD4FF480121A6103681A6912F5801F94
:1039700001DA264A1A61036859681A6902FB01F2E2
:103980009A6103689A681C69596A04FB02125A62B8
:103990000268536A9B1293620368996A5A6AA2EB9F
:1039A00081225A620368996ADA690A44DA61016815
:1039B000CC6983685A699302B4EB822F1CDDCB611A
:1039C0000268D168136954691B1B03FB01F313627E
:1039D00002689369D1690B44116A0B449B12D3624C
:1039E0000268D16A83685B6999420ADDD362036821
:1039F000D96AFFF78BFF10BD5B429C42E0DACB61D6
:103A0000DEE75B429942F2DAD362F0E70000F0FFB2
:103A100038B5846A0368091B19640368196CB1F529
:103A2000486F02DD4FF4486119640368196C11F5A1
:103A3000486F01DA31491964C369D21A0368D21197
:103A40005A6403685A6CB2F57A6F02DD4FF47A62F9
:103A50005A6403685A6C12F57A6F01DA284A5A647C
:103A60000368196B1A6C02FB01F29A6403689A6B83
:103A70001D6C596B5C6C04FB01F105FB02115A6D66
:103A80000A445A650268536DDB1193650368996DAA
:103A90005A6DA2EBC1125A650368996DDA6C0A443B
:103AA000DA640168CC6C83685A699302B4EB822FA4
:103AB0001ADDCB640368D96B5A6C02FB01F21A65FC
:103AC0000268936CD16C0B44116D0B449B12D3654F
:103AD0000268D16D83685B6999420ADDD36503682A
:103AE000D96DFFF713FF38BD5B429C42E2DACB642D
:103AF000E0E75B429942F2DAD365F0E780F3FFFF3B
:103B000060F0FFFF017170478368DB680B4443631B
:103B1000704700002DE9F84F05460F4616464469E8
:103B20000C1BD0F80890D9F80C301C44002CB8BFFE
:103B30006442D9F81C00FCF7E3FF80463146FDF7EC
:103B400033F883463146FDF72FF84FF07A51FDF7F1
:103B50002BF882462046FCF7D3FF04465146FDF77A
:103B6000DFF950B1194B5B69C9F81830394628465E
:103B7000FFF7CAFF0020BDE8F88F31463046FDF759
:103B800013F806464FF081412046FDF70DF84146F7
:103B9000FDF7BEF801463046FCF7FCFE05F0FEFCE2
:103BA00001464046FDF700F801465846FCF7F2FE94
:103BB0004FF07C51FCF7F8FFAC68FDF7D1F9A0613C
:103BC00039462846FFF7A0FF0120D4E7E411002082
:103BD00083689B695A428A4202DC8B4200DB816324
:103BE000704738B571B1C2688568E868101AFCF78B
:103BF00087FF0446A868FCF783FF01462046FDF7CF
:103C000087F838BD42698568E868101AFCF778FFC4
:103C10000446A868FCF774FF01462046FDF778F8D3
:103C2000EFE738B50446C069FCF76AFF0546A368AC
:103C30009868FCF765FF01462846FDF769F838BD2E
:103C400008B5006BFCF75CFF0149FDF761F808BDA2
:103C500000007A4483685B698B4201DAC363704772
:103C60005B428B4201DDC3637047C1637047002331
:103C70008365C37170470000002813DB314B984205
:103C80005DDD314B98423CDAA0F5C330A0384FF4EB
:103C9000837303FB00F00015B0F5D77F16DD4FF4FA
:103CA000D77013E0294B984245DAA3F59213A3F598
:103CB000786398420BDB00F5C330A0304FF4837378
:103CC00003FB00F0001510F5D77F36DB7047204B63
:103CD00098420BDB00F59E1000F5B150C0EBC00020
:103CE000C0EB00100015A0F59670ECE700F506108B
:103CF00000F58E50342303FB00F00015A0F5C370CF
:103D0000E1E7144B98420BDAA0F59E10A0F5B150F4
:103D1000C0EBC000C0EB0010001500F59670BBE7CB
:103D2000A0F50610A0F58E50342303FB00F000151B
:103D300000F5C370B0E700207047074870470020C7
:103D4000704700BF9F86010020D613006179FEFFF7
:103D5000416EDEFFC091210052FEFFFF274B93F81A
:103D60003030002B48D0254B1B7B0371002343715F
:103D70008371C3600361436183610362C361436212
:103D80008362C3628268D26842638363C36380F8DC
:103D9000403080F8413043648364C36480F850301D
:103DA00080F8513080F85230436503638365C371F6
:103DB000C36580F86030026813610268536102686D
:103DC00093610268D36102681362026853620268F9
:103DD00093620268D36202681364026853640268E3
:103DE00093640268D36402681365026853650268CD
:103DF00093650268D36570470023B6E7E41100209D
:103E000010B444698268916894FBF1F301FB134399
:103E1000D36010BC70470160704702680023536292
:103E2000026893620268D361026853650268936511
:103E30000268D3647047000038B50446A74B1B786E
:103E4000002B40F0AD80D0F84031DA681A61D0F82C
:103E50004421D0F84031D288DA60D0F84021D368CC
:103E600011695B1A8168B3EB610F40F3C3805B1A81
:103E700051699161D4F840114A6913444B61D4F8F7
:103E800040315A699969521AD4F88800D969C1EB4E
:103E9000411100FB0212196A0A441A62D4F8402147
:103EA000136A5B11D361D4F84031D9691A6AA2EB65
:103EB00041121A62D4F84051E869FFF7DDFE6862EA
:103EC000D4F840315A69596A0A449A62D4F84031A8
:103ED0005A6C996A521ADA62D4F84031DA7952B9D6
:103EE00093F850303BB9D4F8440103689B68984775
:103EF000002840F08680D4F84001FFF78EFFD4F808
:103F0000402100235365D4F840211363D4F84801BD
:103F100003689B689847D4F8403159791A799142DF
:103F200005D05A71D4F84031012283F85220D4F8D8
:103F30004021916BA369994240F3AB809363D4F81D
:103F40004021D16B6369994240F3A980D363D4F8CF
:103F5000403193F8502012B193F840202AB193F8E1
:103F600051202AB193F8412012B9012283F852203E
:103F7000D4F8403193F85220002A40F09680D4F8CB
:103F800040114B79013B072B00F2F180DFE813F081
:103F9000E0002F013A0145015601660171017C01E3
:103FA000C268816801EBD1735810B2EB630F16DA67
:103FB000D4F84431DB880244934200DD5B1AD4F824
:103FC0004021D360D4F840211361D4F840215361DB
:103FD000D4F840219361414B00221A7038BDD4F8C7
:103FE0004431DB8801EBD170A2EB60029342E6DA48
:103FF0000B44E4E74842B3EB600FBFF639AF0B4424
:1040000036E7D4F8400190F851304BB94379082B8A
:1040100081D8DFE803F0192C28241F39353114002A
:10402000FFF7FBFED4F8402100235365D4F840216C
:104030001363D4F848010368DB6898476BE7826C28
:10404000416CFFF7E5FC66E7D4F8480103689B681C
:10405000984760E7826C416CFFF7DAFC5BE7C16C64
:10406000FFF754FC57E7816CFFF76EFC53E7826C57
:10407000416CFFF7CDFC4EE7C16CFFF747FC4AE708
:10408000816CFFF761FC46E7826C416CFFF7C0FC76
:1040900041E75B429942BFF652AF93634FE75B4201
:1040A0009942BFF654AFD36351E7002283F8522000
:1040B000D4F84001FFF7B1FED4F84001FFF7D7FD77
:1040C000D4F840114B79013B072B3FF658AFDFE89E
:1040D00003F0070E141A21282E3400BF040000201C
:1040E000CA69896A04F1B800FFF70EFA47E7C9699F
:1040F00004F1A400FFF791F941E7096B04F1900086
:10410000FFF724F93BE7CA69896A04F58270FFF773
:104110003CFB34E7CA69896A04F1B800FFF7F4F997
:104120002DE7C96904F1A400FFF777F927E7096BC8
:1041300004F19000FFF70AF921E7CA69896A04F1DE
:10414000E400FFF703FBD4F840319A6A5A6316E79C
:10415000496B04F1B800FFF703FAD4F84031D4F802
:10416000B8205A64D4F84031D4F8BC209A64D4F80A
:10417000403193F8402083F85020D4F8403193F830
:10418000412083F85120D4F840311A6B82EAE27062
:10419000A0EBE270196891F8601051B159790329C8
:1041A00000F0828007297FD0626982427FD000229E
:1041B0009A65D4F840315A79032A05D0072A03D0EA
:1041C0006269824200F08E800022DA65D4F84031C4
:1041D00083F86020D4F8440103689B68984700285E
:1041E00040F08D80D4F8403105229A71F6E6896B53
:1041F00004F1A400FFF728F9D4F84031D4F8A42042
:104200009A64B4E7C96B04F19000FFF7B6F8D4F8EC
:104210004031D4F89020DA64A9E78A6B496B04F541
:104220008270FFF7E0FAD4F84031D4F804215A64E0
:10423000D4F84031D4F808219A6498E7496B04F126
:10424000B800FFF78DF9D4F84031D4F8B8205A649B
:10425000D4F84031D4F8BC209A6488E7896B04F123
:10426000A400FFF7F1F8D4F84031D4F8A4209A6400
:104270007DE7C96B04F19000FFF77FF8D4F8403177
:10428000D4F89020DA6472E7496B04F1E400FFF798
:1042900062FAD4F84031D4F8E4205A64D4F84031BA
:1042A000D4F8E8209A6462E7002A3FF47DAFDA6927
:1042B00082EAE271A1EBE271A2682E4D85FB02C594
:1042C000D217C2EB65029142BFF673AF9A6D2A49CD
:1042D0008A4202D90122DA716BE7D4F88C100A44C1
:1042E0009A6566E7DA6D24498A4203D9012283F888
:1042F00060206FE7D4F88C100A44DA656AE7D4F8D6
:1043000040315A790AB99A7168E6D97911B1042213
:104310009A7163E693F8601011B103229A715DE619
:10432000012A06D0022A11D0032A19D001229A713B
:1043300054E6596C5A6B914202D002229A714DE6B2
:104340009A6C002AF9D101229A7147E6996C9A6B0E
:10435000914202D002229A7140E601229A713DE612
:10436000D96CDA6B914202D002229A7136E60122B0
:104370009A7133E6676666663F420F0010B50446E1
:10438000D0F8440103685B6898472046FFF754FD66
:1043900010BDF0B5B0F800E07646012309E02746ED
:1043A000C2F1000CB5EB6C0F00DAA7183E440133E4
:1043B0009BB28B4208D230F81340A4EB0E05B5EB4C
:1043C000620FECDDA71AEBE796FBF1F0002803DBA8
:1043D000904200DD801AF0BD1044F9E770B5044644
:1043E0008368D3F8440103685B689847637B062BB6
:1043F00000F2DC80DFE813F007001C0031006C00E5
:1044000084009700D2002379002B00F0CF80A368AE
:10441000D3F84801026855681A692169A847A3685A
:104420009B6823610023E382012262732373BDE052
:10443000216902312161A368D3F8480102685568F7
:104440001A69A8472269A3689B68B2EB430F40F042
:10445000AD80236102236373A8E02569A6687268B2
:10446000B5FBF2F302FB135303BBD6F84431998832
:10447000E28A531C9BB2E3820C3224F81210102BF8
:1044800016D1D6F84431DA68102104F11800FFF78C
:1044900080FFB368EB1A7268B3FBF2F31C3324F8A5
:1044A00013000023E3820135256101E00135256118
:1044B000D6F8480103685B68326921699847236927
:1044C000A2689268B3EB420F70D9032363736DE067
:1044D000216901312161A368D3F848010268556858
:1044E0001A69A8472169A3689A685B6803EB83038C
:1044F00002EB4303B1EB430F58D10423637355E040
:10450000216901392161A368D3F84801026855681F
:104510001A69A8472369A2689268B3EB420F45D194
:104520000523637342E02569A6687268B5FBF2F360
:1045300002FB13530BBBD6F844319988E28A531C13
:104540009BB2E3820C3224F81210102B17D1D6F84C
:104550004431DA68102104F11800FFF71AFFB3683C
:10456000EB1A7268B3FBF2F3E43304EB43035880B5
:104570000023E382013D256101E0013D2561D6F87C
:10458000480103685B683269216998472269A3681A
:104590009B689A420AD20623637307E0A368D3F8A4
:1045A000480103685B6800221146984770BD0844C3
:1045B000B0FBF1F301FB13007047401AB0EB620F40
:1045C00000DD801A5342B0EB630F00DA10447047ED
:1045D000431A08444010002BB8BF5B425110B3EBA4
:1045E000620F04DD814201DC401A704708447047C5
:1045F0002DE9F04705468768D7F84431D3F80C9089
:104600006A4B83FB09234FEAE978C8EBA31800241F
:10461000C82C11D804F11C0604F1E40305EB430394
:10462000D7F84421D268598835F81600FFF7D0FF33
:1046300025F816000134EBE7D7F84431DA68B5F80D
:10464000C611288FFFF7B9FF064630B10028D4BF46
:10465000002601262E7501240FE001232B73BDE8EF
:10466000F08702232B73FAE702232B73F7E701236A
:104670002B73F4E700282CDB0134C72C2ED804F16F
:104680001C0304F11B01D7F84421D26835F811103E
:1046900035F81300FFF791FF80EAE071A1EBE071BC
:1046A00008EB480303EBD373B1EB630FD9DC3F4A4C
:1046B00082FB09324FEAE973C3EBE2139942D3DB81
:1046C0000028D4D00028D5DD002ED3D101232B73B0
:1046D000C5E7002ED0D001232B73C0E756BB4FF0A7
:1046E000000A56463FE03446C72C27D8661CC8212E
:1046F0003046FFF75CFF1C3035F81090C82120468B
:10470000FFF755FF00F11C0335F81330A9EB03093F
:10471000B9F1000FE7DA08F10108C5F85C43D7F8F2
:104720004431DB68013B1C3035F810209B1AC5F87A
:104730006033D8E74FF000084446D5E7B8F1010FE1
:1047400031D003232B738AE70AF1010AC5F85C63B1
:10475000D7F84431DB68013B1C3435F814209B1A30
:10476000C5F860334E46C72E17D806F10109C82197
:104770004846FFF71CFF044600F11C0335F8138080
:10478000C8213046FFF713FF1C3035F81030A8EB76
:104790000308B8F1000FD7DCE4E7BAF1010F02D04B
:1047A00003232B735BE700232B7358E71F85EB5123
:1047B0002DE9F84F437B062B40F032810446836895
:1047C000D3F8480103689B6898472046FFF710FF1D
:1047D000237B002B40F01381C4F8643323689B686B
:1047E0002046984723681B6820469847237D002B66
:1047F00078D0D4F85C734FE0D4F86053B5424ADA0D
:10480000A268506805FB00F393FBF6F3916807FB81
:104810000030FFF7CCFE2368DB6881B22046984762
:10482000D4F864330133C4F864330135E6E7002576
:10483000D4F86033AB422EDDA268506805FB00F36C
:1048400093FBF6F3916807FB0030FFF7B0FE236897
:10485000DB6881B220469847D4F864330133C4F84A
:1048600064330135E4E7A268506805FB00F393FB6D
:10487000F6F3916807FB0030FFF799FE2368DB68C9
:1048800081B220469847D4F864330133C4F86433C6
:104890000135B542E7DB4746D4F85C93A668356836
:1048A00009EB050ABA45C0F29C8007F101082946C8
:1048B0004046FFF77CFE1C3034F810B029463846DD
:1048C000FFF775FE1C30D6F84431DA6834F8101062
:1048D0005846FFF772FE0646B9458DD0BA45A6D0B8
:1048E0000025D6E7D4F85C23A3681B6802EB030815
:1048F00053E0D4F86053B5424DDAA268536803FB25
:1049000007F005FB03F393FBF6F39168C01AFFF77A
:104910004EFE2368DB6881B220469847D4F86433A2
:104920000133C4F864330135E5E70025D4F860337A
:10493000AB4230DDA268536803FB07F005FB03F3CD
:1049400093FBF6F39168C01AFFF731FE2368DB682A
:1049500081B220469847D4F864330133C4F86433F5
:104960000135E3E7A268536803FB07F005FB03F397
:1049700093FBF6F39168C01AFFF719FE2368DB6812
:1049800081B220469847D4F864330133C4F86433C5
:104990000135B542E6DB08F1FF38D4F85C93C14538
:1049A0001FDCA668356829464046FFF700FE1C302C
:1049B00034F810A008F1010729463846FFF7F7FD43
:1049C0001C30D6F84431DA6834F810105046FFF73E
:1049D000F4FD06464D4445458BD0C145A5D0002584
:1049E000D7E723685B6820469847D4F86423A36818
:1049F000D3F84431DB689A4201D004232373237B2C
:104A000083B9A368D3F8443101221A72A368D3F89A
:104A100040310122DA71002363732371237B5BB180
:104A2000BDE8F88FA368D3F8443100221A722368D6
:104A30009B6820469847E9E701F0C0F8F0E710B519
:104A400004460368DB68984723685B6820469847FC
:104A500001232372002300E00133E2689A4209D95E
:104A6000A26932F813104FF6FF729142F4D100227E
:104A70002272F1E7207A10BD38B504464FF40343A3
:104A800083834FF40443C383002517E00133DBB273
:104A90000F2B0AD841FA03F212F0010FF6D094F866
:104AA0002420013284F82420F0E794F8243013F015
:104AB000010F1BD0002363750135EDB2022D17D80D
:104AC00023681B69A18B20469847208423681B69B3
:104AD000E18B204698476084238CC1B241EA0321D0
:104AE00089B22182002384F82430D1E70123637541
:104AF000637D2BB1238A9A106282C3F3400323752E
:104B0000638AA380A26932F81300E08038BD007A7E
:104B1000704738B5044683680B44836003681B689C
:104B2000017998476379834218D0054680B163695B
:104B300000209847A368E2689B1A2269934203D930
:104B400063690220984708E063690320984704E0FE
:104B5000636901209847A368E360657138BD38B583
:104B600004460D4603681B680179984760716561CA
:104B700038BD10B50446436819444160052A09D878
:104B8000DFE802F0221C16272E0300230373437371
:104B900001230374237B002B6ED0637B002B62D038
:104BA000A37B013B032B6DD8DFE803F0202F3E4DA4
:104BB00001230373437300230374EBE7012303739F
:104BC000002343730374E5E7002303734373037403
:104BD000E0E7012303730023437303230374D9E73E
:104BE00000230373437302230374D3E7A368C91A32
:104BF000642947D923681B6800221146204698473C
:104C00006368A3600223A3733CE0A368C91A642904
:104C100038D923681B680122002120469847636821
:104C2000A3600323A3732DE0A368C91A642929D9BB
:104C300023681B6800221146204698476368A360DA
:104C40000423A3731EE0A368C91AB1F52F7F19D9F5
:104C500023681B6801220021204698476368A360EF
:104C60000123A3730EE023681B6801220021204664
:104C700098470123A37305E023681B6800221146AF
:104C800020469847237E022B14D0032B34D0012BCF
:104C900000D010BD636862699B1A642BF9D9236840
:104CA0001B68002201212046984763686361022344
:104CB0002376EEE7636862699B1A642BE9D9E37B8C
:104CC0000133DBB2E373227C93420AD223681B6870
:104CD00001221146204698470123237663686361C9
:104CE000D7E723681B680022012120469847032349
:104CF000237663686361CCE7636862699B1AB3F5E6
:104D00007A7FC6D90023E37323681B68227C003AAC
:104D100018BF01220121204698476368636101237F
:104D20002376B6E710B504460E4B18784FF47A7325
:104D3000B3FBF0F30C4A1068B0FBF3F000F050FF47
:104D400068B90F2C01D901200AE0002221464FF05A
:104D5000FF3000F0F1FE054B1C60002000E0012058
:104D600010BD00BF0500002000000020080000204A
:104D700008B5074A136843F010031360032000F0DE
:104D8000C9FE0F20FFF7CEFFFDF72AFF002008BD68
:104D900000200240034A1168034B1B780B44136048
:104DA000704700BFBC0D002005000020014B1868B3
:104DB000704700BFBC0D002038B50446FFF7F6FF72
:104DC0000546B4F1FF3F02D0044B1B781C44FFF7AB
:104DD000EDFF401BA042FAD338BD00BF0500002004
:104DE000704708B5436A9A6A12F0500F1ED19A6A4A
:104DF00042F400729A621A68926802F46022B2F574
:104E0000602F03D01846FFF7EBFF08BD1A7B002A7E
:104E1000F8D19A6A22F480729A629A6A12F4805FD8
:104E2000F0D19A6A42F001029A62EBE71B6A1B6BAF
:104E30009847EAE7704708B5406AFFF7FBFF08BDEF
:104E4000704708B5406A836A43F040038362C36ACF
:104E500043F00403C362FFF7F3FF08BD30B482B030
:104E60000022019290F82420012A00F08B80034652
:104E7000012280F824204A68062A29D80568686B30
:104E800002EB8202053A1F24944020EA04000C68D9
:104E900004FA02F202436A630A68092A38D91D68D3
:104EA000E86802EB42021E3A0724944020EA04001C
:104EB0008C6804FA02F20243EA600A68103A012A96
:104EC00034D90020002283F8242002B030BC70477F
:104ED0000C2A0ED80568286B02EB8202233A1F24A5
:104EE000944020EA04000C6804FA02F202432A63A8
:104EF000D2E70568E86A02EB8202413A1F24944037
:104F000020EA04000C6804FA02F20243EA62C3E7F2
:104F10001D68286902EB42020724944020EA04003D
:104F20008C6804FA02F202432A61C6E71A6816483E
:104F3000824205D09A6A42F020029A620120C1E7BB
:104F4000906810F4000F1BD1906840F4000090604E
:104F50000A68102A01D00020B4E70C4A12680C49F4
:104F6000A1FB0212920C02EB82025200019202E0BB
:104F7000019A013A0192019A002AF9D10020A1E791
:104F800000209FE70220A0E700240140000000204D
:104F900083DE1B4330B583B00023019303689A6816
:104FA00012F0010F32D104469A6842F001029A6071
:104FB000184B1B68184AA2FB03239B0C0193019B0F
:104FC0001BB1019B013B0193F9E7FFF7EFFE05469B
:104FD00023689B6813F0010F16D1FFF7E7FE431B10
:104FE000022BF5D923689B6813F0010FF0D1A36A57
:104FF00043F01003A362E36A43F00103E36200237A
:1050000084F82430012002E0002000E0002003B0FA
:1050100030BD00BF0000002083DE1B43F8B504460E
:105020000D461646036844498B4259D0434A934281
:1050300056D094F82430012B7CD0012384F82430FE
:105040002046FFF7A7FF074600286ED1A36A23F486
:10505000706323F0010343F48073A3622268374B2B
:105060009A4244D0A36A23F48013A362536813F4D2
:10507000806F05D0A36A23F4405343F48053A362A6
:10508000A36A13F4805F48D0E36A23F00603E36267
:10509000002384F82430236A294A9A62236A294A21
:1050A000DA62236A284A1A6323686FF002021A60E0
:1050B0002268936843F480739360216833462A46DC
:1050C0004C31206A00F0EEFD23689A6802F46022F9
:1050D000B2F5602F24D09A6842F480129A6027E0DB
:1050E000154B5B6813F4702FA3D0012720E0A3F5C4
:1050F00080635B6813F4702FB4D0A36A43F4801309
:10510000A3620D4B5B6813F4806FB9D0A36A23F4DC
:10511000405343F48053A362B2E70023E362B7E74E
:105120009A6842F4A0029A6002E0002384F82430D6
:105130003846F8BD0227FBE7002401400028014063
:10514000E34D0008374E0008434E000838B50368A9
:105150009A6812F0010F01D1002038BD04469A6808
:1051600022F001029A60FFF721FE054623689B6842
:1051700013F0010F13D0FFF719FE431B022BF5D9D3
:1051800023689B6813F0010FF0D0A36A43F010036B
:10519000A362E36A43F00103E3620120DDE700203C
:1051A000DBE7000000287BD070B50446836A002B43
:1051B0004DD02046FFF7CAFFA36A13F0100369D150
:1051C000002867D1A26A22F4885222F0020242F03B
:1051D0000202A2626268E1690A43217B42EA41025B
:1051E000A568B5F5807F02D0012D36D01D46267DFD
:1051F000012E35D02668716821F469412943716018
:105200002568AE68274931401143A960A168B1F50E
:10521000807F01D0012902D12369013B1B0525684C
:10522000E96A21F470010B43EB62236899681E4B15
:105230000B409A4225D0A36A23F0120343F01003D7
:10524000A362E36A43F00103E362012027E0C36243
:1052500080F82430FDF726FAABE74FF48075C6E7F7
:1052600031B9A169013945EA413141F40065C1E72D
:10527000A16A41F02001A162E16A41F00101E1620D
:10528000B8E70023E362A36A23F0030343F00103BA
:10529000A36204E0A36A43F01003A362012070BD7F
:1052A00001207047FDF7E1FFFE0E1FFF70B582B0D1
:1052B0000023019390F82430012B72D0044601237F
:1052C00080F82430FFF742FF2046FFF763FE0546D3
:1052D00028B1002384F82430284602B070BDA36AA8
:1052E00023F4885323F0020343F00203A3622E4BFE
:1052F0001E68022001F050FCB6FBF0F67600019625
:1053000002E0019B013B0193019B002BF9D1226834
:10531000936843F008039360FFF748FD064623684F
:105320009A6812F0080F14D0FFF740FD801B0A287E
:10533000F5D923689B6813F0080FF0D0A36A23F017
:10534000120343F01003A362002384F824300125E4
:10535000C2E79A6842F004029A60FFF727FD06460A
:1053600023689B6813F0040F14D0FFF71FFD801B08
:105370000A28F5D923689B6813F0040FF0D0A36ABC
:1053800023F0120343F01003A362002384F82430B7
:105390000125A1E7A36A23F0030343F00103A362FD
:1053A00097E7022598E700BF00000020002800F0E2
:1053B000A18038B5044690F82030D3B12268136834
:1053C00043F001031360FFF7F1FC054623685A68B8
:1053D00012F0010F10D1FFF7E9FC401B0A28F5D9A4
:1053E000636A43F400336362052384F820300120AC
:1053F00038BDFDF7F7F9E1E71A6822F002021A60FA
:10540000FFF7D4FC054623685A6812F0020F0DD04E
:10541000FFF7CCFC401B0A28F5D9636A43F400333C
:105420006362052384F820300120E1E7227E012A0F
:105430003DD01A6822F080021A60637E012B3BD0B7
:105440002268136823F040031360A37E012B39D038
:105450002268136823F020031360E37E012B37D00A
:105460002268136843F010031360237F012B35D0AB
:105470002268136823F008031360637F012B33D085
:105480002268136823F004031360A368E2681343DF
:1054900022691343626913436268013A2168134326
:1054A000CB6100206062012384F82030A0E71A68F5
:1054B00042F080021A60C0E72268136843F040039C
:1054C0001360C2E72268136843F020031360C4E747
:1054D0002268136823F010031360C6E7226813687C
:1054E00043F008031360C8E72268136843F004031D
:1054F0001360CAE701207047026890F82030013B32
:10550000DBB2012B05D9436A43F4802343620120B7
:10551000704770B4D2F8003243F00103C2F8003291
:105520004B6903F01F03012000FA03F3D2F81C02B9
:10553000DC4320EA0300C2F81C02C869A8B9D2F80B
:105540000C022040C2F80C02CE688D88486945EAFA
:105550000645483042F830508E680D88486945EA63
:105560000645483002EBC0004560C869012819D0E3
:10557000886970BBD2F804022040C2F804020869AE
:1055800068BBD2F814020440C2F81442096A012927
:105590002BD0D2F8003223F00103C2F800320020F1
:1055A00070BC7047D2F80C021843C2F80C020E68A7
:1055B0008D88486945EA0645483042F830508E6883
:1055C0008D89486945EA0645483002EBC0004560D0
:1055D000CEE7D2F804021843C2F80402CFE7D2F8AB
:1055E00014021843C2F81402D0E7D2F81C120B437D
:1055F000C2F81C32CDE770B5044690F82050EDB2E9
:10560000012D06D0436A43F4002343620125284656
:1056100070BD022380F820300268136823F0010374
:105620001360FFF7C3FB064623685B6813F0010FA6
:105630000CD0FFF7BBFB831B0A2BF5D9636A43F43D
:1056400000336362052384F82030E0E700256562BB
:10565000DDE770B490F820400568AD68013CE4B225
:10566000012C5DD815F0E05F54D0C5F3016401252D
:10567000A5401D608B68002B39D10E68CB6805688A
:1056800043EA465604F118031B01EE5003680D6906
:1056900004F1180603EB06135D600B7D012B31D07E
:1056A000D17993791B0443EA0163517943EA0123D9
:1056B000157901682B4301EB0411C1F88C31D178C5
:1056C00093781B0443EA0163517843EA012311787C
:1056D00002680B4302EB0412C2F8883102681834E6
:1056E0002401135943F00103135100201DE04D68BC
:1056F00043EAC503CD6806682B4304F118052D0164
:105700007351C3E7036803EB0613596841F48071D2
:105710005960C5E7436A43F400134362012004E083
:10572000436A43F480234362012070BC704770B425
:1057300090F82040013CE4B2012C00F2A08051B965
:105740000468E46814F0030F10D1436A43F40013B3
:105750004362012098E00468246914F0030F05D126
:10576000436A43F40013436201208DE0056801F1B0
:105770001B0424012C5904F004049460002C67D10C
:10578000056801F11B0424012C59640D146005689F
:1057900001F11B0424012D5905F00205D5600568AF
:1057A0002C44646814F0080F5AD00824146105686A
:1057B00001F11B0605EB06156D68C5F3072595611C
:1057C000046804EB06146468240C5461026802EB5C
:1057D0000112D2F8B8211A70026802EB0112D2F855
:1057E000B821C2F307225A70026802EB0112D2F804
:1057F000B821C2F307429A70026802EB0112D2F894
:10580000B821120EDA70026802EB0112D2F8BC2144
:105810001A71026802EB0112D2F8BC21C2F307220E
:105820005A71026802EB0112D2F8BC21C2F307429E
:105830009A71026802EB0112D2F8BC21120EDA71E1
:10584000B9B90268D36843F02003D36000201BE09D
:10585000056801F11B0424012C59E408546096E703
:1058600001F11B0405EB04156C6804F00F041461CE
:105870009DE70268136943F020031361E6E7436A7A
:1058800043F480234362012070BC704790F82030BD
:10589000013BDBB2012B05D9436A43F48023436209
:1058A0000120704702685369194351610020704715
:1058B0007047704770477047704770477047704730
:1058C00070477047704770472DE9F84F05460368E9
:1058D0005C69D3F804809F68D3F80CB0D3F810A0AB
:1058E000D3F8189014F001063BD017F0010616D03B
:1058F00001229A6017F0020F08D117F0040F0CD1A3
:1059000017F0080606D04FF4805608E0FFF7D0FFE6
:10591000002604E0FFF7CFFF01E04FF4006617F424
:10592000807F0DD02B684FF480729A6017F4007F4F
:1059300040F0868017F4806F00F0868046F40056B1
:1059400017F4803F0DD02B684FF480329A6017F423
:10595000003F40F0838017F4802F00F0838046F4EE
:10596000004614F0080F07D01BF0100F04D046F4C7
:1059700000762B681022DA6014F0040F02D01BF0BE
:10598000080F79D114F0020F04D02B68DB6813F0F4
:10599000030F78D114F0400F07D01AF0100F04D085
:1059A00046F480662B6810221A6114F0200F02D092
:1059B0001AF0080F6BD114F0100F04D02B681B697C
:1059C00013F0030F6AD114F4003F02D018F0100F47
:1059D00068D114F4803F02D018F0080F69D114F494
:1059E000004F7AD018F0040F74D014F4807F04D0E4
:1059F00019F0010F01D046F0010614F4007F04D025
:105A000019F0020F01D046F0020614F4806F04D0A2
:105A100019F0040F01D046F0040614F4006F59D0B9
:105A200019F0700956D0B9F1400F65D058D8B9F1C6
:105A3000200F5ED0B9F1300F42D146F0200644E08D
:105A40002846FFF736FF7BE717F4006F02D046F4D5
:105A5000804675E72846FFF72FFF71E72846FFF7D6
:105A600029FF7EE717F4002F02D046F4803678E74E
:105A70002846FFF722FF74E72B680822DA602846E1
:105A8000FFF71CFF7EE72846FCF724FF82E72B6820
:105A900008221A612846FFF713FF8CE72846FFF714
:105AA0000EFF90E72B6810225A602846FFF709FF87
:105AB0008FE72B6808225A602846FFF703FF8EE71E
:105AC000B9F1100F01D146F008062A68936923F056
:105AD000700393612B6804225A609EB9BDE8F88F69
